:107E000001C0CDC0112484B7882361F0982F9A70E7
:107E1000923041F081FF02C097EF94BF282E80E09E
:107E2000A9D0EEC082E08093C00088E18093C100B9
:107E300086E08093C20080E18093C4008FE09AD0F6
:107E400023E0E22EDD24D39435E0C32E41E1B42EAD
:107E500085D0813479F482D0182F92D0123811F461
:107E600080E004C088E0113809F083E070D080E140
:107E70006ED0EECF823419F484E18AD0F8CF853405
:107E800011F485E0FACF853541F468D0C82F66D06B
:107E9000D82FCC0FDD1F74D0EACF863519F484E0DB
:107EA00077D0DECF843609F033C058D057D0182FA2
:107EB00055D0082F612C7724739443018FEF681AF3
:107EC000780A4CD0F40180831611F7CF59D00534CD
:107ED00009F4FFCFFE01E7BEE89507B600FCFDCF31
:107EE000FE0120E031E0D9012E5F3F4F8D919C9142
:107EF0000C01D7BEE895112432961213F4CFFE017F
:107F0000C7BEE89507B600FCFDCFB7BEE895AFCF7A
:107F1000843771F423D022D0F82E20D031D08E01B6
:107F2000F80185918F0113D0FA94F110F9CF9FCF0A
:107F3000853739F425D08EE10AD085E908D08FE065
:107F400095CF813509F0A7CF88E014D0A4CF9091C8
:107F5000C00095FFFCCF8093C60008958091C000BB
:107F600087FFFCCF8091C00084FD01C0A89580915F
:107F7000C6000895E0E6F0E098E1908380830895DC
:107F8000EDDF803219F088E0F5DFFFCF84E1DFCF4D
:107F9000CF93C82FE3DFC150E9F7CF91F1CFFC01B8
:107FA0000A0167BFE895112407B600FCFDCF667093
:0E7FB00029F0452B19F481E187BFE89508956B
:027FFE00000879
:0400000300007E007B
:00000001FF
